{
  "_format": "hh-sol-artifact-1",
  "contractName": "MyEpicNFT",
  "sourceName": "contracts/MyEpicNFT.sol",
  "abi": [
    {
      "inputs": [],
      "stateMutability": "nonpayable",
      "type": "constructor"
    },
    {
      "anonymous": false,
      "inputs": [
        {
          "indexed": true,
          "internalType": "address",
          "name": "owner",
          "type": "address"
        },
        {
          "indexed": true,
          "internalType": "address",
          "name": "approved",
          "type": "address"
        },
        {
          "indexed": true,
          "internalType": "uint256",
          "name": "tokenId",
          "type": "uint256"
        }
      ],
      "name": "Approval",
      "type": "event"
    },
    {
      "anonymous": false,
      "inputs": [
        {
          "indexed": true,
          "internalType": "address",
          "name": "owner",
          "type": "address"
        },
        {
          "indexed": true,
          "internalType": "address",
          "name": "operator",
          "type": "address"
        },
        {
          "indexed": false,
          "internalType": "bool",
          "name": "approved",
          "type": "bool"
        }
      ],
      "name": "ApprovalForAll",
      "type": "event"
    },
    {
      "anonymous": false,
      "inputs": [
        {
          "indexed": false,
          "internalType": "address",
          "name": "sender",
          "type": "address"
        },
        {
          "indexed": false,
          "internalType": "uint256",
          "name": "tokenId",
          "type": "uint256"
        }
      ],
      "name": "NewEpicNFTMinted",
      "type": "event"
    },
    {
      "anonymous": false,
      "inputs": [
        {
          "indexed": true,
          "internalType": "address",
          "name": "from",
          "type": "address"
        },
        {
          "indexed": true,
          "internalType": "address",
          "name": "to",
          "type": "address"
        },
        {
          "indexed": true,
          "internalType": "uint256",
          "name": "tokenId",
          "type": "uint256"
        }
      ],
      "name": "Transfer",
      "type": "event"
    },
    {
      "inputs": [
        {
          "internalType": "address",
          "name": "to",
          "type": "address"
        },
        {
          "internalType": "uint256",
          "name": "tokenId",
          "type": "uint256"
        }
      ],
      "name": "approve",
      "outputs": [],
      "stateMutability": "nonpayable",
      "type": "function"
    },
    {
      "inputs": [
        {
          "internalType": "address",
          "name": "owner",
          "type": "address"
        }
      ],
      "name": "balanceOf",
      "outputs": [
        {
          "internalType": "uint256",
          "name": "",
          "type": "uint256"
        }
      ],
      "stateMutability": "view",
      "type": "function"
    },
    {
      "inputs": [
        {
          "internalType": "uint256",
          "name": "tokenId",
          "type": "uint256"
        }
      ],
      "name": "getApproved",
      "outputs": [
        {
          "internalType": "address",
          "name": "",
          "type": "address"
        }
      ],
      "stateMutability": "view",
      "type": "function"
    },
    {
      "inputs": [
        {
          "internalType": "address",
          "name": "owner",
          "type": "address"
        },
        {
          "internalType": "address",
          "name": "operator",
          "type": "address"
        }
      ],
      "name": "isApprovedForAll",
      "outputs": [
        {
          "internalType": "bool",
          "name": "",
          "type": "bool"
        }
      ],
      "stateMutability": "view",
      "type": "function"
    },
    {
      "inputs": [],
      "name": "makeAnEpicNFT",
      "outputs": [],
      "stateMutability": "nonpayable",
      "type": "function"
    },
    {
      "inputs": [],
      "name": "name",
      "outputs": [
        {
          "internalType": "string",
          "name": "",
          "type": "string"
        }
      ],
      "stateMutability": "view",
      "type": "function"
    },
    {
      "inputs": [
        {
          "internalType": "uint256",
          "name": "tokenId",
          "type": "uint256"
        }
      ],
      "name": "ownerOf",
      "outputs": [
        {
          "internalType": "address",
          "name": "",
          "type": "address"
        }
      ],
      "stateMutability": "view",
      "type": "function"
    },
    {
      "inputs": [
        {
          "internalType": "uint256",
          "name": "tokenId",
          "type": "uint256"
        }
      ],
      "name": "pickRandomQuote",
      "outputs": [
        {
          "internalType": "string",
          "name": "",
          "type": "string"
        }
      ],
      "stateMutability": "view",
      "type": "function"
    },
    {
      "inputs": [
        {
          "internalType": "address",
          "name": "from",
          "type": "address"
        },
        {
          "internalType": "address",
          "name": "to",
          "type": "address"
        },
        {
          "internalType": "uint256",
          "name": "tokenId",
          "type": "uint256"
        }
      ],
      "name": "safeTransferFrom",
      "outputs": [],
      "stateMutability": "nonpayable",
      "type": "function"
    },
    {
      "inputs": [
        {
          "internalType": "address",
          "name": "from",
          "type": "address"
        },
        {
          "internalType": "address",
          "name": "to",
          "type": "address"
        },
        {
          "internalType": "uint256",
          "name": "tokenId",
          "type": "uint256"
        },
        {
          "internalType": "bytes",
          "name": "_data",
          "type": "bytes"
        }
      ],
      "name": "safeTransferFrom",
      "outputs": [],
      "stateMutability": "nonpayable",
      "type": "function"
    },
    {
      "inputs": [
        {
          "internalType": "address",
          "name": "operator",
          "type": "address"
        },
        {
          "internalType": "bool",
          "name": "approved",
          "type": "bool"
        }
      ],
      "name": "setApprovalForAll",
      "outputs": [],
      "stateMutability": "nonpayable",
      "type": "function"
    },
    {
      "inputs": [
        {
          "internalType": "bytes4",
          "name": "interfaceId",
          "type": "bytes4"
        }
      ],
      "name": "supportsInterface",
      "outputs": [
        {
          "internalType": "bool",
          "name": "",
          "type": "bool"
        }
      ],
      "stateMutability": "view",
      "type": "function"
    },
    {
      "inputs": [],
      "name": "symbol",
      "outputs": [
        {
          "internalType": "string",
          "name": "",
          "type": "string"
        }
      ],
      "stateMutability": "view",
      "type": "function"
    },
    {
      "inputs": [
        {
          "internalType": "uint256",
          "name": "tokenId",
          "type": "uint256"
        }
      ],
      "name": "tokenURI",
      "outputs": [
        {
          "internalType": "string",
          "name": "",
          "type": "string"
        }
      ],
      "stateMutability": "view",
      "type": "function"
    },
    {
      "inputs": [
        {
          "internalType": "address",
          "name": "from",
          "type": "address"
        },
        {
          "internalType": "address",
          "name": "to",
          "type": "address"
        },
        {
          "internalType": "uint256",
          "name": "tokenId",
          "type": "uint256"
        }
      ],
      "name": "transferFrom",
      "outputs": [],
      "stateMutability": "nonpayable",
      "type": "function"
    }
  ],
  "bytecode": "0x6080604052604051806101e001604052806101b4815260200162003c776101b49139600890805190602001906200003892919062000443565b50604051806101c001604052806040518060400160405280600f81526020017f446f20796f75207377616c6c6f773f0000000000000000000000000000000000815250815260200160405180606001604052806029815260200162003e2b6029913981526020016040518060800160405280604a815260200162003bb9604a9139815260200160405180606001604052806033815260200162003c0360339139815260200160405180608001604052806041815260200162003c366041913981526020016040518060400160405280600c81526020017f492077617320686f726e792e0000000000000000000000000000000000000000815250815260200160405180606001604052806030815260200162003e5460309139815260200160405180606001604052806027815260200162003e846027913981526020016040518060600160405280602c815260200162003f0b602c913981526020016040518060800160405280605e815260200162003b5b605e9139815260200160405180606001604052806039815260200162003eab6039913981526020016040518060400160405280601881526020017f45766572206265656e20626974636820736c61707065643f0000000000000000815250815260200160405180606001604052806027815260200162003ee46027913981526020016040518060400160405280601381526020017f57656c6c206675636b206d79206f7a6f6e652e00000000000000000000000000815250815250600990600e62000277929190620004d4565b503480156200028557600080fd5b506040518060400160405280600981526020017f5371756172654e465400000000000000000000000000000000000000000000008152506040518060400160405280600681526020017f535155415245000000000000000000000000000000000000000000000000000081525081600090805190602001906200030a92919062000443565b5080600190805190602001906200032392919062000443565b505050620003716040518060400160405280601e81526020017f54686973206973206d79204e465420636f6e74726163742e20576f61682100008152506200037760201b62000f321760201c565b620006f5565b62000417816040516024016200038e919062000609565b6040516020818303038152906040527f41304fac000000000000000000000000000000000000000000000000000000007bffffffffffffffffffffffffffffffffffffffffffffffffffffffff19166020820180517bffffffffffffffffffffffffffffffffffffffffffffffffffffffff83818316178352505050506200041a60201b60201c565b50565b60008151905060006a636f6e736f6c652e6c6f679050602083016000808483855afa5050505050565b82805462000451906200067f565b90600052602060002090601f016020900481019282620004755760008555620004c1565b82601f106200049057805160ff1916838001178555620004c1565b82800160010185558215620004c1579182015b82811115620004c0578251825591602001919060010190620004a3565b5b509050620004d091906200053b565b5090565b82805482825590600052602060002090810192821562000528579160200282015b82811115620005275782518290805190602001906200051692919062000443565b5091602001919060010190620004f5565b5b5090506200053791906200055a565b5090565b5b80821115620005565760008160009055506001016200053c565b5090565b5b808211156200057e576000818162000574919062000582565b506001016200055b565b5090565b50805462000590906200067f565b6000825580601f10620005a45750620005c5565b601f016020900490600052602060002090810190620005c491906200053b565b5b50565b6000620005d5826200062d565b620005e1818562000638565b9350620005f381856020860162000649565b620005fe81620006e4565b840191505092915050565b60006020820190508181036000830152620006258184620005c8565b905092915050565b600081519050919050565b600082825260208201905092915050565b60005b83811015620006695780820151818401526020810190506200064c565b8381111562000679576000848401525b50505050565b600060028204905060018216806200069857607f821691505b60208210811415620006af57620006ae620006b5565b5b50919050565b7f4e487b7100000000000000000000000000000000000000000000000000000000600052602260045260246000fd5b6000601f19601f8301169050919050565b61345680620007056000396000f3fe608060405234801561001057600080fd5b50600436106100f55760003560e01c80636352211e11610097578063b88d4fde11610066578063b88d4fde14610296578063c87b56dd146102b2578063de9d132f146102e2578063e985e9c5146102ec576100f5565b80636352211e146101fc57806370a082311461022c57806395d89b411461025c578063a22cb4651461027a576100f5565b8063095ea7b3116100d3578063095ea7b3146101785780630c40f47e1461019457806323b872dd146101c457806342842e0e146101e0576100f5565b806301ffc9a7146100fa57806306fdde031461012a578063081812fc14610148575b600080fd5b610114600480360381019061010f91906121c5565b61031c565b6040516101219190612ccc565b60405180910390f35b6101326103fe565b60405161013f9190612ce7565b60405180910390f35b610162600480360381019061015d9190612217565b610490565b60405161016f9190612c3c565b60405180910390f35b610192600480360381019061018d9190612189565b610515565b005b6101ae60048036038101906101a99190612217565b61062d565b6040516101bb9190612ce7565b60405180910390f35b6101de60048036038101906101d99190612083565b61074b565b005b6101fa60048036038101906101f59190612083565b6107ab565b005b61021660048036038101906102119190612217565b6107cb565b6040516102239190612c3c565b60405180910390f35b6102466004803603810190610241919061201e565b61087d565b6040516102539190612f47565b60405180910390f35b610264610935565b6040516102719190612ce7565b60405180910390f35b610294600480360381019061028f919061214d565b6109c7565b005b6102b060048036038101906102ab91906120d2565b610b48565b005b6102cc60048036038101906102c79190612217565b610baa565b6040516102d99190612ce7565b60405180910390f35b6102ea610cfc565b005b61030660048036038101906103019190612047565b610e9e565b6040516103139190612ccc565b60405180910390f35b60007f80ac58cd000000000000000000000000000000000000000000000000000000007bffffffffffffffffffffffffffffffffffffffffffffffffffffffff1916827bffffffffffffffffffffffffffffffffffffffffffffffffffffffff191614806103e757507f5b5e139f000000000000000000000000000000000000000000000000000000007bffffffffffffffffffffffffffffffffffffffffffffffffffffffff1916827bffffffffffffffffffffffffffffffffffffffffffffffffffffffff1916145b806103f757506103f682610fcb565b5b9050919050565b60606000805461040d906131e6565b80601f0160208091040260200160405190810160405280929190818152602001828054610439906131e6565b80156104865780601f1061045b57610100808354040283529160200191610486565b820191906000526020600020905b81548152906001019060200180831161046957829003601f168201915b5050505050905090565b600061049b82611035565b6104da576040517f08c379a00000000000000000000000000000000000000000000000000000000081526004016104d190612ea7565b60405180910390fd5b6004600083815260200190815260200160002060009054906101000a900473ffffffffffffffffffffffffffffffffffffffff169050919050565b6000610520826107cb565b90508073ffffffffffffffffffffffffffffffffffffffff168373ffffffffffffffffffffffffffffffffffffffff161415610591576040517f08c379a000000000000000000000000000000000000000000000000000000000815260040161058890612f07565b60405180910390fd5b8073ffffffffffffffffffffffffffffffffffffffff166105b06110a1565b73ffffffffffffffffffffffffffffffffffffffff1614806105df57506105de816105d96110a1565b610e9e565b5b61061e576040517f08c379a000000000000000000000000000000000000000000000000000000000815260040161061590612de7565b60405180910390fd5b61062883836110a9565b505050565b6060600061066161063d84611162565b60405160200161064d9190612bf8565b60405160208183030381529060405261130f565b9050600980549050816106749190613261565b9050600981815481106106b0577f4e487b7100000000000000000000000000000000000000000000000000000000600052603260045260246000fd5b9060005260206000200180546106c5906131e6565b80601f01602080910402602001604051908101604052809291908181526020018280546106f1906131e6565b801561073e5780601f106107135761010080835404028352916020019161073e565b820191906000526020600020905b81548152906001019060200180831161072157829003601f168201915b5050505050915050919050565b61075c6107566110a1565b82611342565b61079b576040517f08c379a000000000000000000000000000000000000000000000000000000000815260040161079290612f27565b60405180910390fd5b6107a6838383611420565b505050565b6107c683838360405180602001604052806000815250610b48565b505050565b6000806002600084815260200190815260200160002060009054906101000a900473ffffffffffffffffffffffffffffffffffffffff169050600073ffffffffffffffffffffffffffffffffffffffff168173ffffffffffffffffffffffffffffffffffffffff161415610874576040517f08c379a000000000000000000000000000000000000000000000000000000000815260040161086b90612e27565b60405180910390fd5b80915050919050565b60008073ffffffffffffffffffffffffffffffffffffffff168273ffffffffffffffffffffffffffffffffffffffff1614156108ee576040517f08c379a00000000000000000000000000000000000000000000000000000000081526004016108e590612e07565b60405180910390fd5b600360008373ffffffffffffffffffffffffffffffffffffffff1673ffffffffffffffffffffffffffffffffffffffff168152602001908152602001600020549050919050565b606060018054610944906131e6565b80601f0160208091040260200160405190810160405280929190818152602001828054610970906131e6565b80156109bd5780601f10610992576101008083540402835291602001916109bd565b820191906000526020600020905b8154815290600101906020018083116109a057829003601f168201915b5050505050905090565b6109cf6110a1565b73ffffffffffffffffffffffffffffffffffffffff168273ffffffffffffffffffffffffffffffffffffffff161415610a3d576040517f08c379a0000000000000000000000000000000000000000000000000000000008152600401610a3490612da7565b60405180910390fd5b8060056000610a4a6110a1565b73ffffffffffffffffffffffffffffffffffffffff1673ffffffffffffffffffffffffffffffffffffffff16815260200190815260200160002060008473ffffffffffffffffffffffffffffffffffffffff1673ffffffffffffffffffffffffffffffffffffffff16815260200190815260200160002060006101000a81548160ff0219169083151502179055508173ffffffffffffffffffffffffffffffffffffffff16610af76110a1565b73ffffffffffffffffffffffffffffffffffffffff167f17307eab39ab6107e8899845ad3d59bd9653f200f220920489ca2b5937696c3183604051610b3c9190612ccc565b60405180910390a35050565b610b59610b536110a1565b83611342565b610b98576040517f08c379a0000000000000000000000000000000000000000000000000000000008152600401610b8f90612f27565b60405180910390fd5b610ba48484848461167c565b50505050565b6060610bb582611035565b610bf4576040517f08c379a0000000000000000000000000000000000000000000000000000000008152600401610beb90612e87565b60405180910390fd5b6000600660008481526020019081526020016000208054610c14906131e6565b80601f0160208091040260200160405190810160405280929190818152602001828054610c40906131e6565b8015610c8d5780601f10610c6257610100808354040283529160200191610c8d565b820191906000526020600020905b815481529060010190602001808311610c7057829003601f168201915b505050505090506000610c9e6116d8565b9050600081511415610cb4578192505050610cf7565b600082511115610ce9578082604051602001610cd1929190612b60565b60405160208183030381529060405292505050610cf7565b610cf2846116ef565b925050505b919050565b6000610d086007611796565b90506000610d158261062d565b90506000600882604051602001610d2d929190612b84565b60405160208183030381529060405290506000610d7283610d4d846117a4565b604051602001610d5e929190612bb3565b6040516020818303038152906040526117a4565b9050600081604051602001610d879190612c1a565b6040516020818303038152906040529050610dd66040518060400160405280601581526020017f0a2d2d2d2d2d2d2d2d2d2d2d2d2d2d2d2d2d2d2d2d0000000000000000000000815250610f32565b610ddf81610f32565b610e1d6040518060400160405280601581526020017f2d2d2d2d2d2d2d2d2d2d2d2d2d2d2d2d2d2d2d2d0a0000000000000000000000815250610f32565b610e273386611962565b610e318582611980565b610e3b60076119f4565b7febb98688741ffa4c7589bf325de30cf7becb63de567842e1ccdb6cb949fdc82c3386604051610e6c929190612ca3565b60405180910390a1610e976040518060600160405280602581526020016133bc602591398633611a0a565b5050505050565b6000600560008473ffffffffffffffffffffffffffffffffffffffff1673ffffffffffffffffffffffffffffffffffffffff16815260200190815260200160002060008373ffffffffffffffffffffffffffffffffffffffff1673ffffffffffffffffffffffffffffffffffffffff16815260200190815260200160002060009054906101000a900460ff16905092915050565b610fc881604051602401610f469190612ce7565b6040516020818303038152906040527f41304fac000000000000000000000000000000000000000000000000000000007bffffffffffffffffffffffffffffffffffffffffffffffffffffffff19166020820180517bffffffffffffffffffffffffffffffffffffffffffffffffffffffff8381831617835250505050611aa9565b50565b60007f01ffc9a7000000000000000000000000000000000000000000000000000000007bffffffffffffffffffffffffffffffffffffffffffffffffffffffff1916827bffffffffffffffffffffffffffffffffffffffffffffffffffffffff1916149050919050565b60008073ffffffffffffffffffffffffffffffffffffffff166002600084815260200190815260200160002060009054906101000a900473ffffffffffffffffffffffffffffffffffffffff1673ffffffffffffffffffffffffffffffffffffffff1614159050919050565b600033905090565b816004600083815260200190815260200160002060006101000a81548173ffffffffffffffffffffffffffffffffffffffff021916908373ffffffffffffffffffffffffffffffffffffffff160217905550808273ffffffffffffffffffffffffffffffffffffffff1661111c836107cb565b73ffffffffffffffffffffffffffffffffffffffff167f8c5be1e5ebec7d5bd14f71427d1e84f3dd0314c0f7b2291e5b200ac8c7c3b92560405160405180910390a45050565b606060008214156111aa576040518060400160405280600181526020017f3000000000000000000000000000000000000000000000000000000000000000815250905061130a565b600082905060005b600082146111dc5780806111c590613218565b915050600a826111d59190613071565b91506111b2565b60008167ffffffffffffffff81111561121e577f4e487b7100000000000000000000000000000000000000000000000000000000600052604160045260246000fd5b6040519080825280601f01601f1916602001820160405280156112505781602001600182028036833780820191505090505b5090505b600085146113035760018261126991906130fc565b9150600a856112789190613261565b6030611284919061301b565b60f81b8183815181106112c0577f4e487b7100000000000000000000000000000000000000000000000000000000600052603260045260246000fd5b60200101907effffffffffffffffffffffffffffffffffffffffffffffffffffffffffffff1916908160001a905350600a856112fc9190613071565b9450611254565b8093505050505b919050565b6000816040516020016113229190612b49565b6040516020818303038152906040528051906020012060001c9050919050565b600061134d82611035565b61138c576040517f08c379a000000000000000000000000000000000000000000000000000000000815260040161138390612dc7565b60405180910390fd5b6000611397836107cb565b90508073ffffffffffffffffffffffffffffffffffffffff168473ffffffffffffffffffffffffffffffffffffffff16148061140657508373ffffffffffffffffffffffffffffffffffffffff166113ee84610490565b73ffffffffffffffffffffffffffffffffffffffff16145b8061141757506114168185610e9e565b5b91505092915050565b8273ffffffffffffffffffffffffffffffffffffffff16611440826107cb565b73ffffffffffffffffffffffffffffffffffffffff1614611496576040517f08c379a000000000000000000000000000000000000000000000000000000000815260040161148d90612ec7565b60405180910390fd5b600073ffffffffffffffffffffffffffffffffffffffff168273ffffffffffffffffffffffffffffffffffffffff161415611506576040517f08c379a00000000000000000000000000000000000000000000000000000000081526004016114fd90612d87565b60405180910390fd5b611511838383611ad2565b61151c6000826110a9565b6001600360008573ffffffffffffffffffffffffffffffffffffffff1673ffffffffffffffffffffffffffffffffffffffff168152602001908152602001600020600082825461156c91906130fc565b925050819055506001600360008473ffffffffffffffffffffffffffffffffffffffff1673ffffffffffffffffffffffffffffffffffffffff16815260200190815260200160002060008282546115c3919061301b565b92505081905550816002600083815260200190815260200160002060006101000a81548173ffffffffffffffffffffffffffffffffffffffff021916908373ffffffffffffffffffffffffffffffffffffffff160217905550808273ffffffffffffffffffffffffffffffffffffffff168473ffffffffffffffffffffffffffffffffffffffff167fddf252ad1be2c89b69c2b068fc378daa952ba7f163c4a11628f55a4df523b3ef60405160405180910390a4505050565b611687848484611420565b61169384848484611ad7565b6116d2576040517f08c379a00000000000000000000000000000000000000000000000000000000081526004016116c990612d47565b60405180910390fd5b50505050565b606060405180602001604052806000815250905090565b60606116fa82611035565b611739576040517f08c379a000000000000000000000000000000000000000000000000000000000815260040161173090612ee7565b60405180910390fd5b60006117436116d8565b90506000815111611763576040518060200160405280600081525061178e565b8061176d84611162565b60405160200161177e929190612b60565b6040516020818303038152906040525b915050919050565b600081600001549050919050565b606060008251905060008114156117cd576040518060200160405280600081525091505061195d565b600060036002836117de919061301b565b6117e89190613071565b60046117f491906130a2565b90506000602082611805919061301b565b67ffffffffffffffff811115611844577f4e487b7100000000000000000000000000000000000000000000000000000000600052604160045260246000fd5b6040519080825280601f01601f1916602001820160405280156118765781602001600182028036833780820191505090505b50905060006040518060600160405280604081526020016133e1604091399050600181016020830160005b8681101561191a5760038101905062ffffff818a015116603f8160121c168401518060081b905060ff603f83600c1c1686015116810190508060081b905060ff603f8360061c1686015116810190508060081b905060ff603f831686015116810190508060e01b905080845260048401935050506118a1565b50600386066001811461193457600281146119445761194f565b613d3d60f01b600283035261194f565b603d60f81b60018303525b508484525050819450505050505b919050565b61197c828260405180602001604052806000815250611c6e565b5050565b61198982611035565b6119c8576040517f08c379a00000000000000000000000000000000000000000000000000000000081526004016119bf90612e47565b60405180910390fd5b806006600084815260200190815260200160002090805190602001906119ef929190611eaa565b505050565b6001816000016000828254019250508190555050565b611aa4838383604051602401611a2293929190612d09565b6040516020818303038152906040527fe3849f79000000000000000000000000000000000000000000000000000000007bffffffffffffffffffffffffffffffffffffffffffffffffffffffff19166020820180517bffffffffffffffffffffffffffffffffffffffffffffffffffffffff8381831617835250505050611aa9565b505050565b60008151905060006a636f6e736f6c652e6c6f679050602083016000808483855afa5050505050565b505050565b6000611af88473ffffffffffffffffffffffffffffffffffffffff16611cc9565b15611c61578373ffffffffffffffffffffffffffffffffffffffff1663150b7a02611b216110a1565b8786866040518563ffffffff1660e01b8152600401611b439493929190612c57565b602060405180830381600087803b158015611b5d57600080fd5b505af1925050508015611b8e57506040513d601f19601f82011682018060405250810190611b8b91906121ee565b60015b611c11573d8060008114611bbe576040519150601f19603f3d011682016040523d82523d6000602084013e611bc3565b606091505b50600081511415611c09576040517f08c379a0000000000000000000000000000000000000000000000000000000008152600401611c0090612d47565b60405180910390fd5b805181602001fd5b63150b7a0260e01b7bffffffffffffffffffffffffffffffffffffffffffffffffffffffff1916817bffffffffffffffffffffffffffffffffffffffffffffffffffffffff191614915050611c66565b600190505b949350505050565b611c788383611cdc565b611c856000848484611ad7565b611cc4576040517f08c379a0000000000000000000000000000000000000000000000000000000008152600401611cbb90612d47565b60405180910390fd5b505050565b600080823b905060008111915050919050565b600073ffffffffffffffffffffffffffffffffffffffff168273ffffffffffffffffffffffffffffffffffffffff161415611d4c576040517f08c379a0000000000000000000000000000000000000000000000000000000008152600401611d4390612e67565b60405180910390fd5b611d5581611035565b15611d95576040517f08c379a0000000000000000000000000000000000000000000000000000000008152600401611d8c90612d67565b60405180910390fd5b611da160008383611ad2565b6001600360008473ffffffffffffffffffffffffffffffffffffffff1673ffffffffffffffffffffffffffffffffffffffff1681526020019081526020016000206000828254611df1919061301b565b92505081905550816002600083815260200190815260200160002060006101000a81548173ffffffffffffffffffffffffffffffffffffffff021916908373ffffffffffffffffffffffffffffffffffffffff160217905550808273ffffffffffffffffffffffffffffffffffffffff16600073ffffffffffffffffffffffffffffffffffffffff167fddf252ad1be2c89b69c2b068fc378daa952ba7f163c4a11628f55a4df523b3ef60405160405180910390a45050565b828054611eb6906131e6565b90600052602060002090601f016020900481019282611ed85760008555611f1f565b82601f10611ef157805160ff1916838001178555611f1f565b82800160010185558215611f1f579182015b82811115611f1e578251825591602001919060010190611f03565b5b509050611f2c9190611f30565b5090565b5b80821115611f49576000816000905550600101611f31565b5090565b6000611f60611f5b84612f93565b612f62565b905082815260208101848484011115611f7857600080fd5b611f838482856131a4565b509392505050565b600081359050611f9a8161335f565b92915050565b600081359050611faf81613376565b92915050565b600081359050611fc48161338d565b92915050565b600081519050611fd98161338d565b92915050565b600082601f830112611ff057600080fd5b8135612000848260208601611f4d565b91505092915050565b600081359050612018816133a4565b92915050565b60006020828403121561203057600080fd5b600061203e84828501611f8b565b91505092915050565b6000806040838503121561205a57600080fd5b600061206885828601611f8b565b925050602061207985828601611f8b565b9150509250929050565b60008060006060848603121561209857600080fd5b60006120a686828701611f8b565b93505060206120b786828701611f8b565b92505060406120c886828701612009565b9150509250925092565b600080600080608085870312156120e857600080fd5b60006120f687828801611f8b565b945050602061210787828801611f8b565b935050604061211887828801612009565b925050606085013567ffffffffffffffff81111561213557600080fd5b61214187828801611fdf565b91505092959194509250565b6000806040838503121561216057600080fd5b600061216e85828601611f8b565b925050602061217f85828601611fa0565b9150509250929050565b6000806040838503121561219c57600080fd5b60006121aa85828601611f8b565b92505060206121bb85828601612009565b9150509250929050565b6000602082840312156121d757600080fd5b60006121e584828501611fb5565b91505092915050565b60006020828403121561220057600080fd5b600061220e84828501611fca565b91505092915050565b60006020828403121561222957600080fd5b600061223784828501612009565b91505092915050565b61224981613130565b82525050565b61225881613142565b82525050565b600061226982612fd8565b6122738185612fee565b93506122838185602086016131b3565b61228c8161334e565b840191505092915050565b60006122a282612fe3565b6122ac8185612fff565b93506122bc8185602086016131b3565b6122c58161334e565b840191505092915050565b60006122db82612fe3565b6122e58185613010565b93506122f58185602086016131b3565b80840191505092915050565b6000815461230e816131e6565b6123188186613010565b94506001821660008114612333576001811461234457612377565b60ff19831686528186019350612377565b61234d85612fc3565b60005b8381101561236f57815481890152600182019150602081019050612350565b838801955050505b50505092915050565b600061238d603283612fff565b91507f4552433732313a207472616e7366657220746f206e6f6e20455243373231526560008301527f63656976657220696d706c656d656e74657200000000000000000000000000006020830152604082019050919050565b60006123f3601c83612fff565b91507f4552433732313a20746f6b656e20616c7265616479206d696e746564000000006000830152602082019050919050565b6000612433602083613010565b91507f3c2f703e3c2f6469763e3c2f666f726569676e4f626a6563743e3c2f7376673e6000830152602082019050919050565b6000612473602483612fff565b91507f4552433732313a207472616e7366657220746f20746865207a65726f2061646460008301527f72657373000000000000000000000000000000000000000000000000000000006020830152604082019050919050565b60006124d9601983612fff565b91507f4552433732313a20617070726f766520746f2063616c6c6572000000000000006000830152602082019050919050565b6000612519604c83613010565b91507f222c20226465736372697074696f6e223a202248616e6b204576616e7320717560008301527f6f7465732e222c2022696d616765223a2022646174613a696d6167652f73766760208301527f2b786d6c3b6261736536342c00000000000000000000000000000000000000006040830152604c82019050919050565b60006125a5602c83612fff565b91507f4552433732313a206f70657261746f7220717565727920666f72206e6f6e657860008301527f697374656e7420746f6b656e00000000000000000000000000000000000000006020830152604082019050919050565b600061260b603883612fff565b91507f4552433732313a20617070726f76652063616c6c6572206973206e6f74206f7760008301527f6e6572206e6f7220617070726f76656420666f7220616c6c00000000000000006020830152604082019050919050565b6000612671602a83612fff565b91507f4552433732313a2062616c616e636520717565727920666f7220746865207a6560008301527f726f2061646472657373000000000000000000000000000000000000000000006020830152604082019050919050565b60006126d7602983612fff565b91507f4552433732313a206f776e657220717565727920666f72206e6f6e657869737460008301527f656e7420746f6b656e00000000000000000000000000000000000000000000006020830152604082019050919050565b600061273d602e83612fff565b91507f45524337323155524953746f726167653a2055524920736574206f66206e6f6e60008301527f6578697374656e7420746f6b656e0000000000000000000000000000000000006020830152604082019050919050565b60006127a3600283613010565b91507f227d0000000000000000000000000000000000000000000000000000000000006000830152600282019050919050565b60006127e3602083612fff565b91507f4552433732313a206d696e7420746f20746865207a65726f20616464726573736000830152602082019050919050565b6000612823603183612fff565b91507f45524337323155524953746f726167653a2055524920717565727920666f722060008301527f6e6f6e6578697374656e7420746f6b656e0000000000000000000000000000006020830152604082019050919050565b6000612889602c83612fff565b91507f4552433732313a20617070726f76656420717565727920666f72206e6f6e657860008301527f697374656e7420746f6b656e00000000000000000000000000000000000000006020830152604082019050919050565b60006128ef602983612fff565b91507f4552433732313a207472616e73666572206f6620746f6b656e2074686174206960008301527f73206e6f74206f776e00000000000000000000000000000000000000000000006020830152604082019050919050565b6000612955602f83612fff565b91507f4552433732314d657461646174613a2055524920717565727920666f72206e6f60008301527f6e6578697374656e7420746f6b656e00000000000000000000000000000000006020830152604082019050919050565b60006129bb600a83613010565b91507f7b226e616d65223a2022000000000000000000000000000000000000000000006000830152600a82019050919050565b60006129fb602183612fff565b91507f4552433732313a20617070726f76616c20746f2063757272656e74206f776e6560008301527f72000000000000000000000000000000000000000000000000000000000000006020830152604082019050919050565b6000612a61600a83613010565b91507f46495253545f574f5244000000000000000000000000000000000000000000006000830152600a82019050919050565b6000612aa1601d83613010565b91507f646174613a6170706c69636174696f6e2f6a736f6e3b6261736536342c0000006000830152601d82019050919050565b6000612ae1603183612fff565b91507f4552433732313a207472616e736665722063616c6c6572206973206e6f74206f60008301527f776e6572206e6f7220617070726f7665640000000000000000000000000000006020830152604082019050919050565b612b438161319a565b82525050565b6000612b5582846122d0565b915081905092915050565b6000612b6c82856122d0565b9150612b7882846122d0565b91508190509392505050565b6000612b908285612301565b9150612b9c82846122d0565b9150612ba782612426565b91508190509392505050565b6000612bbe826129ae565b9150612bca82856122d0565b9150612bd58261250c565b9150612be182846122d0565b9150612bec82612796565b91508190509392505050565b6000612c0382612a54565b9150612c0f82846122d0565b915081905092915050565b6000612c2582612a94565b9150612c3182846122d0565b915081905092915050565b6000602082019050612c516000830184612240565b92915050565b6000608082019050612c6c6000830187612240565b612c796020830186612240565b612c866040830185612b3a565b8181036060830152612c98818461225e565b905095945050505050565b6000604082019050612cb86000830185612240565b612cc56020830184612b3a565b9392505050565b6000602082019050612ce1600083018461224f565b92915050565b60006020820190508181036000830152612d018184612297565b905092915050565b60006060820190508181036000830152612d238186612297565b9050612d326020830185612b3a565b612d3f6040830184612240565b949350505050565b60006020820190508181036000830152612d6081612380565b9050919050565b60006020820190508181036000830152612d80816123e6565b9050919050565b60006020820190508181036000830152612da081612466565b9050919050565b60006020820190508181036000830152612dc0816124cc565b9050919050565b60006020820190508181036000830152612de081612598565b9050919050565b60006020820190508181036000830152612e00816125fe565b9050919050565b60006020820190508181036000830152612e2081612664565b9050919050565b60006020820190508181036000830152612e40816126ca565b9050919050565b60006020820190508181036000830152612e6081612730565b9050919050565b60006020820190508181036000830152612e80816127d6565b9050919050565b60006020820190508181036000830152612ea081612816565b9050919050565b60006020820190508181036000830152612ec08161287c565b9050919050565b60006020820190508181036000830152612ee0816128e2565b9050919050565b60006020820190508181036000830152612f0081612948565b9050919050565b60006020820190508181036000830152612f20816129ee565b9050919050565b60006020820190508181036000830152612f4081612ad4565b9050919050565b6000602082019050612f5c6000830184612b3a565b92915050565b6000604051905081810181811067ffffffffffffffff82111715612f8957612f8861331f565b5b8060405250919050565b600067ffffffffffffffff821115612fae57612fad61331f565b5b601f19601f8301169050602081019050919050565b60008190508160005260206000209050919050565b600081519050919050565b600081519050919050565b600082825260208201905092915050565b600082825260208201905092915050565b600081905092915050565b60006130268261319a565b91506130318361319a565b9250827fffffffffffffffffffffffffffffffffffffffffffffffffffffffffffffffff0382111561306657613065613292565b5b828201905092915050565b600061307c8261319a565b91506130878361319a565b925082613097576130966132c1565b5b828204905092915050565b60006130ad8261319a565b91506130b88361319a565b9250817fffffffffffffffffffffffffffffffffffffffffffffffffffffffffffffffff04831182151516156130f1576130f0613292565b5b828202905092915050565b60006131078261319a565b91506131128361319a565b92508282101561312557613124613292565b5b828203905092915050565b600061313b8261317a565b9050919050565b60008115159050919050565b60007fffffffff0000000000000000000000000000000000000000000000000000000082169050919050565b600073ffffffffffffffffffffffffffffffffffffffff82169050919050565b6000819050919050565b82818337600083830152505050565b60005b838110156131d15780820151818401526020810190506131b6565b838111156131e0576000848401525b50505050565b600060028204905060018216806131fe57607f821691505b60208210811415613212576132116132f0565b5b50919050565b60006132238261319a565b91507fffffffffffffffffffffffffffffffffffffffffffffffffffffffffffffffff82141561325657613255613292565b5b600182019050919050565b600061326c8261319a565b91506132778361319a565b925082613287576132866132c1565b5b828206905092915050565b7f4e487b7100000000000000000000000000000000000000000000000000000000600052601160045260246000fd5b7f4e487b7100000000000000000000000000000000000000000000000000000000600052601260045260246000fd5b7f4e487b7100000000000000000000000000000000000000000000000000000000600052602260045260246000fd5b7f4e487b7100000000000000000000000000000000000000000000000000000000600052604160045260246000fd5b6000601f19601f8301169050919050565b61336881613130565b811461337357600080fd5b50565b61337f81613142565b811461338a57600080fd5b50565b6133968161314e565b81146133a157600080fd5b50565b6133ad8161319a565b81146133b857600080fd5b5056fe416e204e465420772f20494420257320686173206265656e206d696e74656420746f2025734142434445464748494a4b4c4d4e4f505152535455565758595a6162636465666768696a6b6c6d6e6f707172737475767778797a303132333435363738392b2fa26469706673582212203aff60155a75bcfd907790c24281ed6d835320c68ddba8bae0f33f96156da5ee64736f6c63430008000033576861743f2049276d206a6f6b696e27207769746820746865206775792e204272696e67696e272061206c6974746c652073756e7368696e6520696e746f20686973206c6966652e204361726566756c2c20796f75276c6c207065656c2e56616769636c65616e2c206875683f2057686174277320746865206d61747465722c20686f6e65793f204c6974746c6520657874726120636865657365206f6e20746865207461636f3f4a7573742062656361757365204920726f636b20646f65736e2774206d65616e2049276d206d616465206f662073746f6e652e49276d2064756520666f72206120736569736d6963206576656e7420616e6420796f752772652064616e63696e67206f6e20746865206661756c74206c696e652e3c73766720786d6c6e733d27687474703a2f2f7777772e77332e6f72672f323030302f73766727207072657365727665417370656374526174696f3d27784d696e594d696e206d656574272076696577426f783d273020302033353020333530273e3c7374796c653e2e62617365207b2066696c6c3a2077686974653b20666f6e742d66616d696c793a2073657269663b20666f6e742d73697a653a20313270783b207d3c2f7374796c653e3c726563742077696474683d273130302527206865696768743d2731303025272066696c6c3d27626c61636b272f3e3c666f726569676e4f626a65637420783d2732302720793d273230272077696474683d2733313027206865696768743d27323030273e3c64697620786d6c6e733d27687474703a2f2f7777772e77332e6f72672f313939392f7868746d6c27207374796c653d2777696474683a20313030253b206865696768743a20313030253b206f766572666c6f773a2068696464656e3b20636f6c6f723a20677265793b20666f6e742d66616d696c793a2076657264616e612c2073616e732d73657269663b206c696e652d6865696768743a20312e3235273e3c703e57656c6c2049206775657373206865206c696b65732074686520636f636b20616674657220616c6c2e436861726c69652773206c696b65206f726967616d692c20686520666f6c647320756e6465722070726573737572652e49276d2061204d6f746865726675636b6572212049276d2061204d6f746865726675636b65722149206e6f746963656420796f7520636f6e76656e69656e746c79206c656674206f757420796f757220656174696e67206469736f726465722e57686174207468652068656c6c2061726520796f75207374696c6c20646f696e6720686572653f436f6d65206f6e2c20646f6e2774206265206d61642c206d79206c6974746c652070757373792d666172742e",
  "linkReferences": {},
  "deployedLinkReferences": {}
}